:1000000014C1000040C100003EC100003CC100001E
:100010003AC1000038C1000036C1000034C1000000
:1000200032C1000030C100002EC100002CC1000010
:100030002AC1000028C1000026C1000024C1000020
:1000400022C1000020C100001EC100001CC1000030
:100050001AC1000018C1000016C10000E0C1000074
:1000600012C1000011C5000045C500000CC1000010
:100070000AC1000008C1000006C1000004C1000060
:1000800002C1000000C10000FEC00000FCC0000072
:10009000FAC00000F8C00000F6C00000F4C0000084
:1000A000F2C00000F0C00000EEC00000ECC0000094
:1000B000EAC00000E8C00000E6C00000E4C00000A4
:1000C000E2C00000E0C00000DEC00000DCC00000B4
:1000D000DAC00000D8C00000D6C00000D4C00000C4
:1000E000D2C0000004030703F602FA0200033E0335
:1000F0000B030F03150319031D03230327032B030E
:100100003E0331033503390300000A0B02090C0DCD
:100110000E080703040100000000000000000000BA
:1001200000000000000000000000000000000000CF
:10013000000000001211100000000000000000008C
:1001400000000000000000000000000000000102AC
:1001500010202008081020401020408002010201D9
:100160000804020101020408102040808040201091
:1001700008040201800402018040201008040201EA
:100180000804020101020408102040800102040852
:10019000102040800505050507050808080802022B
:1001A00002020A0A08080404040401010101010111
:1001B00001010303030303030303040707070C0CF4
:1001C0000C0C0C0C0C0C02020202060606060606BB
:1001D00006060B0B0B0B0B0B0B0B00002000230078
:1001E000260029002C002F0032000001000003012E
:1001F0000601090100002200250028002B002E0026
:100200003100340002010000050108010B0100006B
:100210002100240027002A002D00300033000101B6
:100220000000040107010A01AC0511241FBECFEF35
:10023000D1E2DEBFCDBF00E00CBF12E0A0E0B2E033
:10024000EAE6FFE000E00BBF02C007900D92AA3281
:10025000B107D9F722E0AAE2B2E001C01D92AE3D9B
:10026000B207E1F712E0CAE2D2E000E005C022974F
:100270000109FE010BBF64D6C832D10780E0080730
:10028000B1F7AED470C6BCCE26E040E052EC61E0DF
:1002900070E081E492E098D361E08DE0F0D161E01C
:1002A00089E0EDD161E089E023D260E082E0E7C13E
:1002B000AF92BF92CF92DF92EF92FF920F931F9374
:1002C000F8D000912A0210912B0220912C0230913B
:1002D0002D026B017C01C01AD10AE20AF30A48EE32
:1002E000C41643E0D406E104F10410F160932A023D
:1002F00070932B0280932C0290932D0280912E02FA
:1003000090912F02892B39F481E090E090932F0295
:1003100080932E0204C010922F0210922E02609140
:100320002E028DE0E5D165E072E081E492E0A0D498
:1003300081E492E03AD2181619060CF067C081E405
:1003400092E04CD2909331028093300260E089E0D9
:10035000CFD186E31CD1909337028093360287E396
:1003600016D1909335028093340282E0F6D1BC011D
:10037000882777FD8095982F1F921F921F922FEF4D
:100380002F93A12CB12C6501E12CF12C8701E39472
:1003900020E030E0A90132D570933302609332023D
:1003A00060913602709137024AE050E081E492E0B9
:1003B00008D567E072E081E492E05AD4609134029B
:1003C000709135024AE050E081E492E0FAD467E0AF
:1003D00072E081E492E04CD4609132027091330279
:1003E0004AE050E081E492E0F3D40F900F900F9038
:1003F0000F906AE172E081E492E01F910F91FF900B
:10040000EF90DF90CF90BF90AF9032C41F910F91CB
:10041000FF90EF90DF90CF90BF90AF9008951F9224
:100420000F920FB60F9211242F933F938F939F93A8
:10043000AF93BF938091390290913A02A0913B0211
:10044000B0913C023091380223E0230F2D3720F485
:100450000196A11DB11D05C026E8230F0296A11D1E
:10046000B11D209338028093390290933A02A093F1
:100470003B02B0933C0280913D0290913E02A091DC
:100480003F02B09140020196A11DB11D80933D0233
:1004900090933E02A0933F02B0934002BF91AF9170
:1004A0009F918F913F912F910F900FBE0F901F90B2
:1004B00018952FB7F8946091390270913A028091A3
:1004C0003B0290913C022FBF0895789484B58260DE
:1004D00084BD84B5816084BD85B5826085BD85B5E8
:1004E000816085BDEEE6F0E0808181608083E1E897
:1004F000F0E01082808182608083808181608083CF
:10050000E0E8F0E0808181608083E1EBF0E08081D1
:1005100084608083E0EBF0E0808181608083E1E9AA
:10052000F0E0808182608083808181608083E0E967
:10053000F0E0808181608083E1EAF0E08081826088
:100540008083808181608083E0EAF0E08081816047
:100550008083E1E2F1E0808182608083808181603C
:100560008083E0E2F1E0808181608083EAE7F0E06F
:1005700080818460808380818260808380818160CB
:1005800080838081806880831092C10008958633C3
:1005900008F0865320917B00982F9870277F922B2C
:1005A00090937B0087702091040290E4299F900132
:1005B0001124822B80937C0080917A008064809348
:1005C0007A0080917A0086FDFCCF8091780020919E
:1005D000790090E0922B089590E0FC013197E23190
:1005E000F10508F04BC0EE58FF4F9AC4809180008F
:1005F0008F7703C0809180008F7D80938000089565
:1006000080918000877FF9CF84B58F7702C084B551
:100610008F7D84BD08958091B0008F7703C0809155
:10062000B0008F7D8093B0000895809190008F7707
:1006300007C0809190008F7D03C080919000877FDC
:100640008093900008958091A0008F7707C08091DB
:10065000A0008F7D03C08091A000877F8093A000C1
:100660000895809120018F7707C0809120018F7DB0
:1006700003C080912001877F809320010895CF934C
:10068000DF9390E0FC01E25BFE4F2491FC01EC560D
:10069000FE4F8491882349F190E0880F991FFC0157
:1006A000E25FFD4FA591B4918C509E4FFC01C59126
:1006B000D4919FB7611108C0F8948C912095822342
:1006C0008C93888182230AC0623051F4F8948C9113
:1006D000322F309583238C938881822B888304C0AA
:1006E000F8948C91822B8C939FBFDF91CF910895CA
:1006F0000F931F93CF93DF931F92CDB7DEB7282FB1
:1007000030E0F901E85FFE4F8491F901E25BFE4FB2
:100710001491F901EC56FE4F04910023C1F0882397
:1007200019F0698359DF6981E02FF0E0EE0FFF1FB8
:10073000EC50FE4FA591B4919FB7F8948C91611144
:1007400003C01095812301C0812B8C939FBF0F9014
:10075000DF91CF911F910F910895CF93DF93282FB1
:1007600030E0F901E85FFE4F8491F901E25BFE4F52
:10077000D491F901EC56FE4FC491CC2389F081113C
:100780002BDFEC2FF0E0EE0FFF1FE652FE4FA5919E
:10079000B4912C912D2381E090E021F480E002C0FF
:1007A00080E090E0DF91CF910895FC01818D228D52
:1007B00090E0805C9F4F821B91098F739927089569
:1007C000FC01918D828D981731F0828DE80FF11D1B
:1007D000858D90E008958FEF9FEF0895FC01918D36
:1007E000828D981761F0828DDF01A80FB11D5D9693
:1007F0008C91928D9F5F9F73928F90E008958FEF01
:100800009FEF089583EA95E0892B39F080E090E02E
:10081000892B19F098D1811125C080E090E0892BB7
:1008200041F080E090E0892B21F00E9400008111CE
:100830001CC080E090E0892B41F080E090E0892BA3
:1008400021F00E940000811113C080E090E0892B0C
:10085000A1F080E090E0892B81F00E9400008111DE
:100860000AC008950E940000D8CF0E940000E1CF86
:100870000E940000EACF0C9400000895FC01848DD2
:10088000DF01A80FB11DA35ABF4F2C91848D90E0BA
:1008900001968F739927848FA689B7892C93A08995
:1008A000B1898C9180648C93938D848D981306C04C
:1008B0000288F389E02D80818F7D80830895CF9316
:1008C000DF93EC01888D8823C1F0EA89FB89808160
:1008D00085FD05C0A889B9898C9186FD0EC00FB62B
:1008E00007FCF5CF808185FFF2CFA889B9898C916B
:1008F00085FFEDCFCE01C2DFE8CFDF91CF91089524
:10090000CF92DF92FF920F931F93CF93DF931F92AB
:10091000CDB7DEB76C0181E0D60158968C9358971D
:100920005B969C915B975C968C915C97981307C043
:100930005096ED91FC915197808185FD2DC0F60177
:10094000038D10E00F5F1F4F0F731127F02EF6017C
:10095000848DF81210C00FB607FCF9CFD60150965F
:10096000ED91FC915197808185FFF1CFC60169839C
:1009700085DF6981ECCF838DE80FF11DE35AFF4FCE
:100980006083D6015B960C935B975296ED91FC9138
:100990005397808180620CC0D6015696ED91FC91F0
:1009A000579760835096ED91FC91519780818064B8
:1009B000808381E090E00F90DF91CF911F910F91A4
:1009C000FF90DF90CF900895BF92CF92DF92EF9289
:1009D000FF92CF93DF93EC016A017B01B22EE8898D
:1009E000F98982E08083411581EE58076105710520
:1009F00099F060E079E08DE390E0A701960152D292
:100A00002150310941095109569547953795279548
:100A1000211580E1380790F0E889F989108260E8B3
:100A200074E88EE190E0A70196013CD22150310993
:100A3000410951095695479537952795EC85FD85D0
:100A40003083EE85FF852083188EEC89FD89B08286
:100A5000EA89FB89808180618083EA89FB898081C2
:100A600088608083EA89FB89808180688083EA8945
:100A7000FB8980818F7D8083DF91CF91FF90EF9004
:100A8000DF90CF90BF9008951F920F920FB60F92F4
:100A900011240BB60F922F938F939F93EF93FF9395
:100AA000E0915102F09152028081E0915702F09161
:100AB000580282FD12C0908180915A028F5F8F731D
:100AC00020915B02821751F0E0915A02F0E0EF5B57
:100AD000FD4F958F80935A0201C08081FF91EF9165
:100AE0009F918F912F910F900BBE0F900FBE0F9083
:100AF0001F9018951F920F920FB60F9211240BB6EC
:100B00000F922F933F934F935F936F937F938F93A6
:100B10009F93AF93BF93EF93FF9381E492E0AEDE98
:100B2000FF91EF91BF91AF919F918F917F916F91C5
:100B30005F914F913F912F910F900BBE0F900FBE81
:100B40000F901F90189581E492E02FDE21E0892B11
:100B500009F420E0822F089510924402109243027B
:100B600088EE93E0A0E0B0E08093450290934602C7
:100B7000A0934702B09348028DE092E09093420226
:100B80008093410285EC90E090934E0280934D0259
:100B900084EC90E09093500280934F0280EC90E0C0
:100BA000909352028093510281EC90E09093540212
:100BB0008093530282EC90E090935602809355020A
:100BC00086EC90E0909358028093570210925A025C
:100BD00010925B0210925C0210925D0208950895DB
:100BE00074DCFDDF51DBC2E0D4E062DB2097E9F387
:100BF00009DEFBCFCF92DF92EF92FF920F931F930C
:100C0000CF93DF936C017A01EB01E60EF71E00E053
:100C100010E0CE15DF0561F06991D601ED91FC91F0
:100C20000190F081E02DC6011995080F191FF1CF31
:100C3000C801DF91CF911F910F91FF90EF90DF904E
:100C4000CF9008956115710581F0DB010D900020B2
:100C5000E9F7AD0141505109461B570BDC01ED91FD
:100C6000FC910280F381E02D199480E090E00895DA
:100C7000E9CFDC01ED91FC910190F081E02D199418
:100C800069E172E0DFCF8F929F92AF92BF92CF92D5
:100C9000DF92EF92FF920F931F93CF93DF93CDB725
:100CA000DEB7A1970FB6F894DEBF0FBECDBF7C01B3
:100CB000C42EE52FCB01D22E19A221E02D1510F064
:100CC0002AE0D22E8E010F5D1F4F8D2C912CA12C6E
:100CD000B12C6C2D7E2FA5019401E4D08C2DD29ED9
:100CE00080191124015011098A3014F4805D01C06B
:100CF000895CF8018083211531054105510521F0FA
:100D0000C22EE32FCA01E5CFB801C7019BDFA19630
:100D10000FB6F894DEBF0FBECDBFDF91CF911F910C
:100D20000F91FF90EF90DF90CF90BF90AF909F908A
:100D30008F900895CF92DF92EF92FF920F931F93BF
:100D4000CF93DF93EC016A017B012115310579F422
:100D5000E881F9810190F081E02D642FDF91CF913E
:100D60001F910F91FF90EF90DF90CF9019942A3050
:100D70003105D9F477FF18C06DE27BDF8C01442781
:100D80005527BA014C195D096E097F092AE0CE0189
:100D90007ADF800F911FDF91CF911F910F91FF900C
:100DA000EF90DF90CF9008952AE0B701A601CE0121
:100DB000DF91CF911F910F91FF90EF90DF90CF9037
:100DC00062CF9A01AB01662757FD6095762FB2CFAF
:100DD0000F931F93CF93DF93EC019A01AB0166272A
:100DE00057FD6095762FA6DF8C01CE0149DF800F7D
:100DF000911FDF91CF911F910F9108954F925F92B4
:100E00006F927F92AF92BF92CF92DF92EF92FF925A
:100E10000F931F93CF93DF93CDB7DEB729013A012C
:100E2000621B730B840B950B2A893B894C895D8966
:100E30002A193B094C095D092A8B3B8B4C8B5D8B36
:100E40009B01AC016A897B898C899D891CD0E4183F
:100E5000F50806091709A801970146D02A0D3B1D80
:100E60004C1D5D1DCA01B901DF91CF911F910F91FA
:100E7000FF90EF90DF90CF90BF90AF907F906F90FA
:100E80005F904F900895DB018F939F934FD0BF9158
:100E9000AF91A29F800D911DA39F900DB29F900DC9
:100EA00011240895A1E21A2EAA1BBB1BFD010DC03F
:100EB000AA1FBB1FEE1FFF1FA217B307E407F5070A
:100EC00020F0A21BB30BE40BF50B661F771F881FE6
:100ED000991F1A9469F760957095809590959B017C
:100EE000AC01BD01CF010895052E97FB16F40094C7
:100EF0000FD057FD05D0D6DF07FC02D046F408C05E
:100F000050954095309521953F4F4F4F5F4F089535
:100F100090958095709561957F4F8F4F9F4F089565
:100F2000EE0FFF1F0590F491E02D19940DD0A59FB1
:100F3000900DB49F900DA49F800D911D11240895D4
:100F40000790F691E02D1994A29FB001B39FC001C4
:100F5000A39F700D811D1124911DB29F700D811DE5
:0A0F60001124911D0895F894FFCFAD
:100F6A00010000000161002C00000000008004FA6A
:100F7A0005D503EE03E0035F040D0A006E616E00FF
:0A0F8A00696E66006F7666002E00A7
:00000001FF
